:020000040000FA
:10000000E0290020150200001D0200001F02000070
:100010002102000023020000250200000000000071
:1000200000000000000000000000000027020000A7
:1000300029020000000000002B0200002D02000039
:100040002F0200008D030000750800002F02000041
:100050002F0200002F0200002F0200002F020000DC
:100060002F0200002F0200002F0200002F020000CC
:100070002F0200002F0200002F0200002F020000BC
:100080002F0200002F0200002F0200002F020000AC
:10009000410600002F0200002F0200002F02000086
:1000A0002F0200002F0200002F0200002F0200008C
:1000B0002F0200002F0200000000000000000000DE
:1000C0002F0200002F0200002F0200002F0200006C
:1000D0002F0200002F0200002F0200002F0200005C
:1000E0002F0200002F0200002F020000000000007D
:1000F000000000002F020000000000002F0200009E
:1001000000000000000000000000000000000000EF
:1001100000000000000000000000000000000000DF
:1001200000000000000000000000000000000000CF
:1001300000000000000000000000000000000000BF
:1001400000000000000000000000000000000000AF
:10015000000000000000000000000000000000009F
:10016000000000000000000000000000000000008F
:10017000000000000000000000000000000000007F
:10018000000000000000000000000000000000006F
:10019000000000000000000000000000000000005F
:1001A000000000000000000000000000000000004F
:1001B000000000000000000000000000000000003F
:1001C000000000000000000000000000000000002F
:1001D000000000000000000000000000000000001F
:1001E000000000000000000000000000000000000F
:1001F00000000000000000000000000000000000FF
:10020000DFF80CD000F062F800480047F11200005F
:10021000E02900200648804706480047FEE7FEE741
:10022000FEE7FEE7FEE7FEE7FEE7FEE7FEE7FEE7A6
:10023000990600000102000040EA01039B0703D079
:1002400009E008C9121F08C0042AFAD203E011F815
:10025000013B00F8013B521EF9D27047D2B201E0D7
:1002600000F8012B491EFBD270470022F6E710B5BB
:1002700013460A4604461946FFF7F0FF204610BD14
:10028000421C10F8011B0029FBD1801A704703465D
:1002900011F8012B00F8012B002AF9D118467047FC
:1002A00030B50B46014600202022012409E021FA46
:1002B00002F59D4205D303FA02F5491B04FA02F543
:1002C0002844151EA2F10102F1DC30BD064C074D99
:1002D00006E0E06840F0010394E807009847103416
:1002E000AC42F6D3FFF790FFC02F0000E02F0000D4
:1002F00010B50B46024603A1054800F0CFFC0448A8
:1003000010BD00005B25735D2025730D0A00000001
:10031000E008002000F01F02012191404009800008
:1003200000F1E020C0F88012704700F01F020121A8
:1003300091404009800000F1E020C0F88011704732
:1003400000F01F02012191404009800000F1E020EF
:10035000C0F80011704700F01F02012191404009D0
:10036000800000F1E020C0F8001270474907090E34
:10037000002806DA00F00F0000F1E02080F8141DDC
:10038000704700F1E02080F80014704770B5144CFD
:10039000D4F80001002628B1D4F80403C00701D026
:1003A000C4F80061D4F80C010E4D40B1D4F8040338
:1003B000000704D5C4F80C61286900B18047D4F85F
:1003C000100100280BD0D4F80403C00607D5C4F8E8
:1003D0001061E868002802D0BDE87040004770BD99
:1003E000001000402000002070B50B4B064614465C
:1003F00018780D4608B900F0D5FA002000F059FD34
:1004000022462946304600F009F80446002000F054
:1004100052FD204670BD00004C06002070B50E460F
:10042000144900EB400001EBC0051446E86A18359A
:1004300020B101280FD0022805D113E0284600F092
:10044000E5FAA04201D2002411E0224631462846B6
:1004500000F002FC0BE0284600F0D8FAA042F4D2EB
:100460000446F2E73146284600F0C9FB0446204620
:1004700070BD00004C06002070B505460C460846CD
:10048000FFF7FEFE024621462846BDE87040FFF712
:10049000ABBF0FB408B504A900916A46039900F0F8
:1004A00003F801B05DF814FB2DE9F04198B0064661
:1004B00007A8029040200025CDE90305CDE90556A7
:1004C00090460C4614F8011B002973D0252908D04A
:1004D00002A800F075FB05980028F3DA18B0BDE813
:1004E000F081002001212278232A1ED02B2A19D046
:1004F0002D2A02D0302A08D102E040F0010001E0AC
:1005000040F00200641C0029EDD100222178A1F105
:1005100030030A2B0CD202EB820201EB4202303A8A
:10052000641CF3E740F00400ECE740F00800E9E762
:100530000023CFB22E2F0BD114F8011FA1F13007E9
:100540000A2F05D203EB830301EB4303303BF3E7B0
:100550006C290DD068290BD0702954D00BDC2529CB
:1005600016D0582931D063290CD0642913D114E056
:1005700014F8011FECE7732934D075291BD07829B2
:1005800009D122E0D8F80000011DC8F80010017858
:1005900002A800F015FB641C9DE7D8F800100F1DA1
:1005A000C8F800700968CDE900200A2202A800F00E
:1005B00039FAF0E733E0D8F800100F1DC8F80070E2
:1005C0000968CDE900200A2208E0D8F800100F1DC4
:1005D000C8F800700968CDE90020102202A800F0D8
:1005E00085FAD8E7D8F80000011DC8F800100768A0
:1005F00017F8011B0029CED002A800F0E1FA0598F7
:100600000028F5DAC7E7D8F80000011DC8F8001087
:1006100001680820CDE9000503461022DEE70598B1
:1006200000287FF75BAF049820B1024607A9304647
:10063000FFF7DAFEDDE90410084405904EE70000FC
:100640007CB5144C606A01902078002821D00120EC
:10065000FFF76BFE6568002666600120FFF770FEFD
:10066000E169002915D0E80703D08DF800606846DD
:100670008847A80705D501208DF80000E169684684
:100680008847680705D502208DF80000E1696846B3
:1006900088477CBD2000002030B54FF080500022FC
:1006A0008300D0F83011C3F80C21C3F81021624B3D
:1006B0001A60624B1B68624C2360604B1B1D1B68F9
:1006C000241D23605D4B08331B68241D23605B4B96
:1006D0000C331B68241D2360584B10331B68241DEA
:1006E0002360564B14331B68241D2360534B18336F
:1006F0001B68534C20342360504B1C331B68241D53
:1007000023604E4B20331B68241D23604B4B243346
:100710001B68241D2360494B28331B68241D23605C
:10072000464B2C331B68241D2360444B30331B681D
:10073000434C40342360414B34331B68241D2360F9
:100740003E4B38331B68241D23603C4B3C331B68F5
:10075000241D2360394B40331B68241D2360012472
:10076000082902D1D0F8343113B1082904D006E0A9
:10077000354B3449196005E0D0F8343113B10829FC
:1007800004D006E0314BFB21196005E0D0F834318C
:1007900013B1082908D00EE090F858322C480168AF
:1007A00063F30301016002E0D0F834311BB9294939
:1007B0004FF40070086028480168C90702D06FF044
:1007C000010101602548016841F470010160BFF337
:1007D0004F8FBFF36F8F4FF01021D1F80002002828
:1007E00003DBD1F80402002822DA1D4B1C601D48EF
:1007F0000468002CFCD01224C1F800420568002DCA
:10080000FCD0C1F8044201680029FCD01A600168DC
:100810000029FCD0BFF34F8F10487C380168124A82
:1008200001F4E06111430160BFF34F8F00BFFDE7AA
:100830000F490E48086030BD380500400404001020
:1008400020C50040488103008C56004018F5004048
:10085000E40E0040409602400004004088ED00E0B5
:1008600004E5014000E401400400FA050090D003D3
:10087000D00000200148006800470000140000205C
:1008800070B50C4C0546A068804720698047E16937
:100890000F208847E169C5F307208847E169E8B27E
:1008A0008847A0698047054660698047E0688047BF
:1008B000284670BD840000202DE9F047134C814686
:1008C0001746A0688846002580472069804715E0C4
:1008D00020698047E1690F20884709EB0506E16937
:1008E000C6F307208847E169F0B28847A0698047CE
:1008F00008F80500606980476D1CADB2BD42E7D3C2
:1009000060698047E068BDE8F04700478400002048
:1009100070B50D4C05460E46A0688047206980479B
:10092000E269F0209047E169C5F307208847E16953
:10093000E8B28847E1693046884760698047E068E7
:10094000BDE8704000470000840000202DE9F0471A
:10095000134C81461746A0688846002580472069C9
:10096000804715E020698047E169F020884709EB5E
:100970000506E169C6F307208847E169F0B28847B8
:10098000E16918F805008847606980476D1CADB2C1
:10099000BD42E7D360698047E068BDE8F0470047A3
:1009A0008400002010B5124C02202061606111A06B
:1009B000A06104F17800E0614FF400702062002033
:1009C000A06260620BA1A164E06204F51E71E164A3
:1009D0001021A065C4E91410E06509A1E01DFFF72E
:1009E00056FC08A12046FFF752FC2020A07110BD44
:1009F0004C0600205465726D696E616C0000000049
:100A00005254540053454747455200000269C1689B
:100A10008A4203D88068401A104400E0501A401EF1
:100A2000704700002DE9FC5F0E008146DDE90C47B0
:100A3000C6F1000098469346824600D40846012538
:100A400003E000BF90FBFBF06D1C5845FADAA845A7
:100A500000D9454624B1002E01DB780700D5641E7D
:100A6000B80702D5B8F1000F0FD0F8070DD164B167
:100A7000A5420AD220214846641E00F0A1F8D9F808
:100A80000C000028F3DABDE8FC9FD9F80C00002820
:100A9000F9DB002E02DA56462D2102E0780707D551
:100AA0002B21484600F08CF8D9F80C000028EADB2E
:100AB00007F0030002280FD1B8F1000F0CD15CB190
:100AC000A54209D230214846641E00F079F8D9F8D1
:100AD0000C000028F3DAD6E7CDE9004743465A4632
:100AE0003146484600F002F8CDE700002DE9F84F06
:100AF0008246DDE90A4B0126984691460D46084696
:100B0000374602E0B0FBF9F07F1C4845FAD2B84501
:100B100000D947465FEACB7017D1B4B15FEA8B705A
:100B200002D5B8F1000F02D0202000900BE0302059
:100B3000FBE75046641E009900F042F8DAF80C001A
:100B4000002838DB0CB1A742F3D3DAF80C000028F8
:100B500031DB00BFB8F1010F02D9A8F1010803E0B1
:100B6000B5FBF6F0484502D306FB09F6F2E7DFF8DD
:100B70004C8000BFB5FBF6F000FB165518F80010CE
:100B8000504600F01DF8DAF80C00002803DBB6FB35
:100B9000F9F6002EEED15FEACB700CD0002C0AD013
:100BA000A74208D220215046641E00F009F8DAF866
:100BB0000C000028F2DABDE8F88F0000982F000042
:100BC00010B50446D4E90130421C934205D3236892
:100BD0001954A260E068401CE060D4E9010282423E
:100BE00009D121682069FFF7FFFBA168884203D083
:100BF0004FF0FF30E06010BD0020A06010BD2DE977
:100C0000F047C4681746894606464FF00008306929
:100C1000A04201D9051B02E0B168201A0D1AB06884
:100C20006D1E001BA84200D80546BD4200D33D46BC
:100C300070682A4620444946FFF7FEFAB0687F1BD9
:100C40002C44A844A944A04200D10024F460002F01
:100C5000DDD14046BDE8F0872DE9F04104468846E5
:100C6000D4E90207C51BE168606816460844B5422E
:100C700006D94146FFF7E0FAB819E060BDE8F08117
:100C80002A464146FFF7D8FA761B08EB05013246A3
:100C90006068FFF7D1FAE660F0E700000FB4084B98
:100CA00010B504A902AA039800F01CF8044602A992
:100CB000002000F0F3F8204610BC5DF814FB0000A3
:100CC0009D0E000002E008C8121F08C1002AFAD1D8
:100CD00070477047002001E001C1121F002AFBD1BC
:100CE000704700002DE9FF4F8BB09A460F4605462E
:100CF000002606E025280BD052460D9990476D1C22
:100D0000761C28780028F5D10FB03046BDE8F08F6A
:100D10000024A0460122604900E0044315F8013F89
:100D2000203B02FA03F00842F7D128782E2817D189
:100D300015F8010F44F004042A280ED06FF02F029A
:100D40002878A0F1300109290AD808EB880102EBC4
:100D5000410100EB01086D1CF2E757F8048B6D1C94
:100D6000287869283ED006DC0028CDD063280BD037
:100D7000642804D136E0732810D075284BD0524631
:100D80000D999047761C85E017F8040B8DF800004C
:100D900000208DF80100E946012003E057F8049B8C
:100DA0004FF0FF3061074FF0000401D40AE0641CEB
:100DB00044450DDA8442FADB19F804100029F6D113
:100DC00006E0641C8442FCDB19F804100029F8D109
:100DD000264404E019F8010B52460D999047641E11
:100DE000F8D257E001CF4FF00A0B002802DA404258
:100DF0002D2102E0210504D52B218DF8241001219D
:100E000003E0E10705D02021F7E70DF12009089163
:100E10000CE00021F9E701CF4FF00A0BF9E7594642
:100E2000FFF73EFA01F1300209F8012D0028F6D152
:100E3000ADEB090000F1200B600701D44FF0010871
:100E4000D84502DDA8EB0B0000E00020804600241E
:100E500006E009A85246005D0D999047641C761C77
:100E600008988442F5DB04E0302052460D99904703
:100E7000761CB8F10001A8F10108F5DC05E019F8CD
:100E8000010B52460D999047761CBBF10001ABF166
:100E9000010BF4DC6D1C34E7092801000A68531CBF
:100EA0000B6010707047006890FAA0F000BA00BAAA
:100EB000704700F003B800F009B8000072B60248AD
:100EC0000168491C016070471C0000200349086844
:100ED000401E086000D162B6704700001C00002070
:100EE0002DE9FC410646C0074FF000050ED0104F1B
:100EF00000240122385D009500231146019500F081
:100F0000ABFD641C042CF4D300F01CF8B0070DD525
:100F1000074E0024361D0022305D03230095114644
:100F2000019500F099FD641C042CF4D3BDE8FC810C
:100F3000902F00000249085C012100F02EBE000045
:100F4000902F000010B500242046FFF7F3FF641C2B
:100F5000042CF9D310BD006890FAA0F000BA7047D5
:100F600070B50F4DA8680F4CC4F800020E486969AF
:100F7000C07C88470E490D4808600021C4F8101154
:100F800001202061D4F81021002AFBD0C4F81011F0
:100F9000A96841F00401C4F80012606070BD00004F
:100FA0002000002000100040280300200A06002036
:100FB000041500404FF080400021C0F800110121CD
:100FC000C0F80010D0F800110029FBD070470000D5
:100FD00070B50446042802D94FF0FF3070BD40F2CE
:100FE000014000EB042005461021FFF791FC284644
:100FF000FFF746FC0028FAD140F2024000EB042043
:10100000FF21FFF785FC0D490120A0404A8882435B
:101010004A808A8882438A800A31002021F814009D
:10102000091F085540F2034000EB04242046FFF757
:1010300027FC0028FAD1012070BD000068000020C4
:1010400010B50C4606281ED2DFE800F003070B108F
:101050001418204601F004FF13E0204601F05AFE68
:101060000FE02078BDE8104001F022BF01F07AFEC9
:10107000207006E0204601F02DFF02E0204601F03E
:1010800074FE002010BD4FF0FF3010BD10B50C46AF
:10109000024600210846092A2DD2DFE802F00508A1
:1010A000130F161A2C2C1E0001F028FF21E00CB1A2
:1010B0002046211DBDE8104001F068BE208801F0E7
:1010C000FCFD16E001F013FE05E0208801F0BFFEF4
:1010D0000FE001F013FE20800BE0084882782270B8
:1010E000C27862700279A2704279E27080792071D0
:1010F0006171002010BD4FF0FF3010BD8400002052
:1011000010B5044624A08AB00068089023A024A14A
:1011100000680990D1E90001CDE9060118222249B1
:101120006846FFF789F801211E2000228DF8130080
:101130008DF808108DF80010012C02D0022C0BD174
:1011400008E04FF416708DF80120ADF80C008DF812
:10115000102001E08DF80110144801908DF8142042
:10116000684600F05DFA002813D108A800F044FB9F
:1011700000280ED109A800F051FB002809D1082150
:1011800006A800F05DFB002803D1012000F07CFBE5
:1011900000200AB010BD0000E7E7E7E7C2C2C2C204
:1011A000E7C2C3C4C5C6C7C8782F00000515000034
:1011B0002DE9F04140F22641002601EB0025491CB3
:1011C00001EB00242846FFF75BFB07462046FFF7AC
:1011D00057FB00EB072007043F0C09D02846FFF718
:1011E0004FFB06462046FFF74BFB00EB062086B27E
:1011F000BE42E7D13046BDE8F0812DE9F041002440
:1012000006464FF4C04503274FF001080EE01A20B0
:10121000FFF736FB610007FA01F21040C84008FAF8
:1012200000F188B2641C05EB802564B2B442EEDBA9
:101230002846BDE8F0812DE9F0414FF48461002695
:1012400001EB0025491C01EB00242846FFF718FBA1
:1012500007462046FFF714FB00EB072007043F0C6E
:1012600009D02846FFF70CFB06462046FFF708FB8F
:1012700000EB062086B2BE42E7D13046BDE8F081E1
:101280002DE9F041002406464FF4804503274FF036
:1012900001080EE01B20FFF7F3FA610007FA01F2E4
:1012A0001040C84008FA00F188B2641C05EB8025A4
:1012B00064B2B442EEDB2846BDE8F08110B50321EC
:1012C0000B2000F0FBFB03210C2000F0F7FB0321B7
:1012D000182000F0F3FB0321192000F0EFFB0120A0
:1012E00000F0E2F8BDE810400120FFF7F9BD000072
:1012F00008B5394C002539A128466560FFF7BCF8D0
:10130000FFF7DCFF01F0CEFB37A10020FFF7B4F8B8
:101310003EA10020FFF7B0F801F02AF940A100201B
:10132000FFF7AAF801F070FB60880023801C82B2EE
:101330000221184601F098F818B13FA10020FFF7EC
:101340009BF86088244B009008330B2240A10020BA
:1013500000F0A2FFFFF72EFE0220FFF7D1FE0020D3
:10136000FFF726FF00B320691B4B009008334FF4B2
:1013700080723A49002000F001FE384801F06AF816
:101380000246364B36A10020FFF783F8124808309A
:1013900001F060F8104B0246083335A10020FFF73A
:1013A00078F82E4801F02AFA20780028D7D02B4A66
:1013B00025702A3A31A1A2F59570FFF76FFC3148EC
:1013C00001F048F882B26088034B009008332D4941
:1013D000002000F061FFC2E700000020496D6D6F42
:1013E0007274616C730D0A000D0A2A2A2A496D6D08
:1013F0006F7274616C7320526F626F7469632074D2
:1014000065616D2A2A2A0D0A000000000D0A496E46
:10141000697469616C697A65205350490D0A00004E
:101420000D0A496E697469616C697A652045746852
:1014300065726E65740D0A0025643A536F636B65BF
:1014400074204F70656E204661696C0D0A000000C3
:10145000436F6E6E65637465640D0A002802002098
:101460005061636B65743A2025642025780D0A006D
:1014700049503A2025642025780D0A0025730D0A6D
:1014800000000000D40000201CB506490020FFF732
:10149000D7FD04490120FFF7D3FD69460820FFF777
:1014A000F5FD1CBDAC00002070B5040006D04FF463
:1014B0007A75284600F084FB641EFAD170BD0000E6
:1014C00070B50C494FF4705008600B4C00256570E6
:1014D000257000F087FE20210848FEF7C6FEE56271
:1014E00014202563FEF721FF05490320C1F80002FF
:1014F000002070BD08F50140200000202C060020CF
:101500000010004038B50078A0B301283DD0022873
:101510002FD1244800F02CF90028FAD0214C22A128
:1015200004F125006279FFF7B9FB04F125010020E1
:10153000FEF7A2FF227A21A104F12500FFF7AEFBFE
:1015400004F125010020FEF797FF0F200090684668
:1015500000F0CEFAD0F80435009C012202FA04F122
:1015600021EA0304C0F808451940C0F80C151748D3
:10157000027038BDFFE716A118A0FEF7B9FEBDE85E
:10158000384001460020FEF784BF17A113A0FEF7E4
:10159000AFFE01460020FEF76FFFBDE8384000F0C7
:1015A00027B80000F90100205B23206F66207061DE
:1015B000636B6574735D2025640D0A005B52657072
:1015C0006F72745D2025640D0A0000000000002089
:1015D000537563636573732E0000000054582050E8
:1015E00061796C6F616400004661696C65642E000E
:1015F000094810B5007860B10120FEF796FE074853
:1016000000218162016241620120FEF799FE002003
:1016100010BD082010BD000020000020680400203C
:1016200070B505007ED0454C207818B1FFF748FF13
:1016300000287DD16868E061182229464048FEF7FD
:10164000FBFD0025656020213E48FEF70EFEE562A9
:10165000256301F05FF900286DD03B494FF0E7307A
:101660000860091D4FF043300860091D37480860C5
:10167000091D3748086000F0B5FD314A00201832D6
:1016800002F5947100EB800303EB4013134441F81F
:101690002030401C0828F5DB2E4A002002F594710A
:1016A00000EB800303EB4013134441F82030401C4F
:1016B0000828F5DB28490420086027480838056019
:1016C000264840F20221C0F80012264A244911603F
:1016D000111D08602248001D091D08601F481030B8
:1016E000091D0860091D204808601D48F038091DC3
:1016F00008601D48001D091D0860091D1B48086081
:101700000F4E707C00F003010120FEF72FFEB07C2D
:1017100000F003011420FEF729FE1420FEF710FE4E
:10172000657002E005E003E005E001202070002084
:1017300070BD0E2070BD072070BD0000200000208D
:10174000280300202C0600201C150040E743C3237B
:10175000A363E3139404002010A5004000A0004000
:101760000011004060F5014040A100400010004021
:1017700070B505461E48007880B385B31D4CA06A3D
:1017800070B30120FEF7D1FD606A54F820100A788A
:101790002A7054F820104978697054F8201089781C
:1017A000A97054F820100979297154F82010C978CB
:1017B000E97054F82010681D491DFEF73DFD606A70
:1017C000401C6062082801D300206062A06A401EAD
:1017D000A0620120FEF7B4FD002070BD01E002E030
:1017E00003E00820F9E70E20F7E70520F5E7000001
:1017F00020000020BC050020074910B54A780AB136
:10180000112010BD30B100684863012001F03EF89E
:10181000002010BD0E2010BD20000020074910B58B
:101820004A780AB1112010BD30B1006888630220E7
:1018300001F02CF8002010BD0E2010BD200000206B
:1018400010B50C460F49497809B1112010BD18B1E7
:10185000082C03D9072010BD0E2010BD01460948F1
:1018600022463C30FEF7E8FC0648C4F1080234305A
:10187000FF210474D1408174042001F007F8002096
:1018800010BD0000200000200649497809B1112050
:101890007047642801D90720704702493431C87461
:1018A00000207047200000200E4810B50078A0B13D
:1018B0000D4CA06A98B10120FEF737FDA06A401ECA
:1018C000A062606A401C6062082801D30020606248
:1018D0000120FEF735FD002010BD082010BD4FF49B
:1018E000807010BD200000206804002070B51A48E8
:1018F000417809B1112070BD184C4FF0FF31C4F888
:1019000008130025C4F810511549C160816841F0E1
:101910000401C4F800121021C4F80413042141701A
:101920000D48104A3430817C11600E49C07C283942
:101930000860091F0C48086001209434FEF7EAFC97
:101940000120FEF7FDFC25676567E567012044F887
:10195000900C002070BD000020000020001000400E
:10196000D11B0000301500400A0600200D4A5078B7
:10197000042802D040F2011070470B490020C1F842
:101980000002431EC1F80833D060C1F810010123E2
:10199000C1F81030D1F81031002BFBD0507000206E
:1019A0007047000020000020001000402DE9F041A9
:1019B000264F0546387840B155B1287868B12028BF
:1019C0000BD8234E317829B109E00820BDE8F08119
:1019D0000E20FBE7F17C884201D90920F6E71D4C77
:1019E000A06A082801D30420F0E76878082801D30A
:1019F0000720EBE70120FEF798FC206A2522294604
:101A000054F82000FEF718FC10486A782C30815CEE
:101A1000491C01F003018154206A54F82020401C25
:101A200008281171206201D300202062A06A401CA6
:101A3000A0620120FEF784FC707828B9307C18B9C8
:101A4000787808B900F050FE0020BFE720000020A1
:101A500028030020680400202DE9FF411C46DDE931
:101A60000A7815460E46684600F050F846EA4501E9
:101A700041EA840141EA072242EA0841009A00EB68
:101A80008200C0F80017BDE8FF812DE9FF411C4628
:101A9000DDE90A7815460E46684600F053F846EA36
:101AA000450141EA840141EA072242EA0841009ADD
:101AB00000EB8200C0F80017BDE8FF8138B50C4686
:101AC0000090684600F014F8009A002100EB8200B4
:101AD00041EA8401C0F8001738BD1CB5002100910F
:101AE0000B46012201911146FFF7CFFF1CBD0000FC
:101AF0000168202902D24FF0A040704701F01F0179
:101B0000016001487047000000030050016820296F
:101B100002D24FF0A040704701F01F010160014860
:101B200070470000000300500168202902D24FF0E6
:101B3000A040704701F01F0101600148704700009C
:101B4000000300500168202902D24FF0A0407047E6
:101B500001F01F01016001487047000000030050C0
:101B600001B56846FFF7EEFF009A01219140C0F8E9
:101B7000081508BD38B501240090684631B1FFF75B
:101B8000B7FF00998C40C0F8084538BDFFF7B0FF9B
:101B900000998C40C0F80C4538BD38B50124009040
:101BA000684631B1FFF7B2FF00998C40C0F8084594
:101BB00038BDFFF7ABFF00998C40C0F80C4538BD2D
:101BC000002802D00149800108477047712F0000AA
:101BD0002DE9F05F554800220127006818B15448EC
:101BE000806A082803D3BDE8F05FFFF7B9B9DFF8D2
:101BF0003C9109F10809D9F800004D49703101EB19
:101C0000800609F104010C68494B35884E33AC421B
:101C1000587805D1B478B4EB500F01D101220027D8
:101C20004008B07008689A4630804248424C017DB6
:101C300019B19AF80110C90710D0A1683F4B41F0C3
:101C40000801C3F800123C49394D007849694FF04A
:101C5000000B2C35B8B3012847D102E0FFF780F91B
:101C60004EE03748836AB3F1000E2DD0436A50F836
:101C700023C09CF80180D9F800C0E04524D196F833
:101C800003C0BCF1010F0DD162B95B1C4362082B8C
:101C900001D3C0F824B0AEF101028262626842F062
:101CA000010262600122F270426A50F82200A061D3
:101CB00000788847A1690878287011F8052BA81CBE
:101CC000FEF7BAFA06E009E086F803B0002088477C
:101CD00085F800B09AF80100687006E00020884797
:101CE0009AF80000287085F801B005206070D9F8D6
:101CF0000000144908601348283805601248E06065
:101D0000002F10D0B178D9F80000C0B200F078FAF6
:101D1000002808D0606840F004006060BDE8F05F13
:101D20001420FEF718BBBDE8F09F0000001400402F
:101D3000BC050020280300202000002000100040E7
:101D4000680400202C1500404D1D000010B5094C02
:101D5000A068094940F00400C1F800020748616921
:101D6000C07C88470749064808600748E0600420AF
:101D7000607010BD200000200010004028030020EB
:101D80000A06002004150040D11B000070B5164C57
:101D9000A068164AC2F80002A06A15490860154BEF
:101DA000091D9889823808601348012140F80C1FEA
:101DB0000021C0F83411C0F83811104D4FF4E05034
:101DC000286050142D1D2860C2F80C11187810B925
:101DD0006169002088470B49094808600A48E060AB
:101DE0000320607070BD0000200000200010004043
:101DF00040A500402803002000A0004004F5014059
:101E00000A06002004150040491E000010B50C4CC5
:101E1000606840F001006060FFF746FD0948806A95
:101E200030B11420FEF797FABDE8104000F05CBC1A
:101E300000206070BDE810401420FEF78CBA00004E
:101E400020000020680400202DE9F047414A4FF4AB
:101E5000E05010604049D1F80C31DFF800910027C4
:101E60003F4CB9F80E004E14DFF8F8800125E3B3BB
:101E70003D4B1B68CBB325611660D8F8041041F0C8
:101E80000101C8F80410D8F82010401A401CC8F806
:101E90002400FFF709FD99F8000088B109F2E2205B
:101EA000017869B14078410830480068C0B200F05C
:101EB000A7F928B1D8F8040040F00400C8F80400DD
:101EC0002B48806A50B199F81000012806D01420E0
:101ED000FEF741FABDE8F04700F006BC88F8017053
:101EE000BDE8F0471420FEF736BAD8F820C0BCF1A0
:101EF000010CC8F820C00BD225611660401CC8F840
:101F00002400D8F8040040F00200C8F80400E5E717
:101F1000D8F808000F4640F00802C1F80022D8F8AF
:101F20001800D8F81410007888471048114928384C
:101F300001601148C8F80C00022088F801002560F3
:101F40000448001F0660D4F84401002800D03D601A
:101F5000BDE8F08708F5014000100040280300208C
:101F600000A0004020000020001400402C1500407C
:101F700068040020E80500208D1D00002DE9FF4FBA
:101F8000002583B01F4690460446042803D9681EE6
:101F900007B0BDE8F08F4FF4806000EB0420FEF73F
:101FA0006FFC834600F00F00022808D0032806D0FB
:101FB000042804D0052802D06FF00400E8E7B8F147
:101FC000000F05D0DFF8C89139F8140018B120E0EF
:101FD0006FF00D00DCE740F2034000EB0426012027
:101FE00000FA04FA2046FFF7E3F805463046FEF70C
:101FF00047FC38B166490A3949881AEA010F06D008
:102000001DB106E06FF00300C2E70020C0E7002D1D
:10201000E8D00BF00701DFF878A140F201404FF063
:10202000800BAAF1040A00EB0426022922D003291E
:102030007CD0042952D02946204600F0B1FD29F871
:10204000145030464021FEF763FC3046FEF718FC82
:102050000028FAD139F81410491B0904090C29F891
:10206000141003D01AF8041041F001010AF804100A
:1020700028468DE739F814004D4670BB08226946A2
:10208000204600F025FD30464021FEF741FC304659
:10209000FEF7F6FB0028FAD19DF8000038709DF895
:1020A000010078709DF80200B8709DF80300F87088
:1020B00010999DF8040008809DF8051001EB0020A0
:1020C000109908809DF806009DF807105BE02A46ED
:1020D0002046049900F0FCFCB3E72AE039F814002C
:1020E0004D4630BB02226946204600F0F1FC3046E6
:1020F0004021FEF70DFC3046FEF7C2FB0028FAD166
:102100009DF800009DF801106FF0010202EB002025
:10211000084480B240F2EA5125F81400884206D9FA
:102120002046FEF755FF6FF47A7031E702E00AF8B7
:1021300004B003E039F814004D4630B135F81450BE
:1021400040464545C3D90546C1E7062269462046B3
:1021500000F0BEFC30464021FEF7DAFB3046FEF7C9
:102160008FFB0028FAD19DF8000038709DF801001F
:1021700078709DF80200B8709DF80300F8709DF823
:1021800004009DF8051001EB002025F81400CEE7AF
:1021900072000020054A18B111B1C2E9040170476C
:1021A000034810610348506170470000840000201C
:1021B000D52C0000D32C0000074A10B513889C05CD
:1021C000FDD518B111B1C2E9060110BD03489061F7
:1021D0000348D06110BD000084000020F72E0000ED
:1021E000FB2E00000549002008624862886201F564
:1021F000AA71086248628862704700006804002083
:102200002DE9F041224C07468846A06A08283DD2B5
:10221000A4F5257120460A780026006A01F2E2251D
:10222000012A03D04A7842B1C97C02E029782029EA
:102230002CD854F82020117002E054F820100E70B1
:1022400054F82000A91C10F8052BFDF7F5FF206AB3
:1022500054F820104F700F49096854F820209170ED
:1022600054F8202082F80480697854F8202041F343
:102270000001491C401CD1702062082800D326624E
:10228000A06A401CA0620120BDE8F0810020FBE7AD
:10229000BC050020481500402DE9F84F1E46DDF82A
:1022A000288015468A460446042803D94FF0FF309B
:1022B000BDE8F88F4FF4806000EB0420FEF7E0FAF1
:1022C00000F00F00022804D0042802D06FF00400B0
:1022D000EEE7FDB130780090717801EB00200090BE
:1022E000B17801EB00200090F17811EB0020009014
:1022F00013D0B8F1000F13D040F2034000EB0420DC
:102300000746FEF7BDFA42280DD022280BD06FF009
:102310000600CDE76FF00D00CAE76FF00B00C7E7CE
:102320006FF00A00C4E740F20C4000EB04200422E6
:102330003146FEF70BFB4FF482604FEA182100EBA9
:102340000420FEF7E5FA40F2114008F0FF0100EB2F
:102350000420FEF7DDFA1B20FEF792FA610003224B
:102360008A401040C840012606FA00F04FF6FF717F
:1023700001EA8020854200D90546DFF8CC80A640DE
:102380002046FEF758FF81463846FEF779FA38B105
:10239000B8F80200064206D04D4504D9002087E770
:1023A0006FF0030084E74D45EAD82A46514620469F
:1023B00000F017FC042269460F20FEF77DFA009812
:1023C000E8B10020CDF8000040F2014000EB04200D
:1023D00006462021FEF79CFA3046FEF751FA002807
:1023E000FAD140F2024000EB04200446FEF748FA1E
:1023F000C1060FD520461021FEF78AFA1AE0042202
:1024000069460520FEF758FA042210A10520FEF7C0
:102410009DFAD9E700070DD520460821FEF778FA86
:10242000009820B1042269460520FEF78FFA6FF06C
:102430000C003DE7009820B1042269460520FEF714
:1024400085FA284634E700006800002000000000FC
:102450000000000002460021084601E0401C491C23
:10246000535C002BFAD17047F8B51E4617460D464F
:102470000446042802D94FF0FF30F8BD062D18D2CB
:10248000DFE805F017030A0A0A0A042269460F204A
:10249000FEF712FA009848B171076FF00500ECD40E
:1024A00096B1012D08D0022D0ED109E06FF0020087
:1024B000F8BD6FF00400F8BD16F0210FFBD003E06B
:1024C000B10601D53106F6D52046FEF781FD06F0AE
:1024D000F0014FF48060294300EB0420FEF718FA66
:1024E000224D57B92F88781C80B2A0F57F412880F3
:1024F000F03902D14FF44040288040F20440390ABC
:1025000000EB0420FEF704FA40F20540F9B200EBBC
:102510000420FEF7FDF940F2014000EB04200746DD
:102520000121FEF7F5F93846FEF7AAF90028FAD19D
:102530000120A040698806F001028143A2400A43BD
:102540006A80A9888143A980084900200A3121F8BE
:102550001400091F085540F2034000EB04252846EB
:10256000FEF78EF90028FAD060B2F8BD68000020AE
:102570001CB50549D1E90001CDE9000169460020FB
:1025800000F004F81CBD0000B82F00002DE9FC414C
:102590000C460546012802D90020BDE8FC812249ED
:1025A00005EB450001EB400021680160A1888180B6
:1025B000A078FFF792FAE078FFF78FFA00272079EA
:1025C00000973B463A4639460197FFF75EFA607935
:1025D000FFF783FA154EA07856F82510C1F80805C4
:1025E00056F82510E078C1F80C0556F8251020792A
:1025F000C1F810056079FFF7B3FA607856F8251036
:102600000006C1F8240556F825102078C1F85405B5
:1026100056F82500C0F8087156F825100120C1F8B9
:10262000000556F82500B8E7D4080020C8000020AF
:1026300010B552B1134B53F820001B1F1860002334
:10264000C0F80831C0F81C350EE0002010BD00BFF6
:10265000C0F81C35D0F80841002CFBD0C0F8083178
:10266000D0F8184502F8014B491E0904090CEFD1B6
:10267000D0F808110029FBD0D0F8180510700120FF
:1026800010BD0000C800002038B562B1154B53F8EA
:1026900020001B1F18600023C0F8083112F8014BFE
:1026A000C0F81C450FE0002038BD00BF12F8015BE8
:1026B000C0F81C55D0F80841002CFBD0C0F80831F8
:1026C000D0F818450094491E0904090CEED100BF4A
:1026D000D0F808110029FBD0D0F81805009001208F
:1026E00038BD0000C80000202DE9F05F3D4C4FF0E0
:1026F0000108C4F824803C48DFF8F0A0A0F5A077DA
:10270000416A3B4D4FF0000B50F82110A161387821
:1027100007F5307610B1012843D10DE008786169E2
:102720008847A1690879307086F801B011F8052B47
:10273000B01CFDF781FD18E0C87820B3387D10B3D8
:10274000002081460878307008794006000E7070CD
:10275000CA78D2B100221043707011F8052BB01C5A
:10276000FDF76AFDB9F1000F11D0A06840F0080034
:10277000C5F800021120C5F80403F8892062022080
:10278000C4F80CA00CE00120DBE70122E3E7A0681D
:10279000C5F800021020C5F804031648E060404662
:1027A0006070A069144A417811604078444608FA84
:1027B00000F0111D08600B480F4934302439C07CEB
:1027C0000860081F06600120FDF7A4FD0120FDF749
:1027D000B7FDC5F804B1C5F808B1C5F810B12C6053
:1027E000BDE8F09F20000020680400208D1D00003F
:1027F000001000400D1E00002C1500402DE9F04196
:102800000546002405E02A5D1BA10020FDF741FEDE
:10281000641C2846FFF71EFEA042F4DCFFF7A6F872
:102820004FF4FA673846FFF7CBF90120FEF768FC52
:10283000144C032020700120E0703846FFF7C0F9E7
:10284000114E287860716878A071307BE0710D4876
:10285000FFF7ACF80028F4D1F068401CF06038466F
:10286000FFF7AEF90220FEF74BFC3846FFF7A8F958
:10287000BDE8F041FFF73AB842797465733A202514
:10288000780D0A00D40100200000002010B5044695
:10289000C00704D00F48FEF706FB0F490860A007E9
:1028A00006D50C48001DFEF7FEFA0B49091D08600D
:1028B00060070DD507480830FEF74DFB0649083183
:1028C000086004480C30FEF746FB03490C310860F1
:1028D00010BD0000540000201C1500400A48017A79
:1028E0000A4801600A48492251B1012905D003294B
:1028F00006D0042901D0002070473021816200E019
:10290000826201207047000028030020101500405B
:102910002000002070B500F041F8FFF7DFFF194CF0
:10292000194922787AB1012A0BD000220240607A3C
:10293000B8B1164B1D1F01280ED0022807D0002564
:1029400013E0134A00E0134A4A610122EEE74FF612
:10295000FF761E60104B03E0FF261E6040F2071357
:102960002B600A4B083B1860012549691540E07C43
:102970008847A089872801D3012000E00020284053
:1029800070BD000028030020200000203C150040FE
:10299000DD290000B129000021100100024803498F
:1029A000807A086070470000280300200C15004062
:1029B000084A074911600849497C491E090441EA4F
:1029C0000021014341F08070111D08607047000034
:1029D000000101001415004054000020074906487A
:1029E000086007480749407C401E41EA004003490F
:1029F000091D086070470000060003001415004020
:102A0000540000202000000100B5154B85B00FCB0D
:102A10008DE80F0013491448FFF7BCFB1349144815
:102A2000FFF7CAFB13A10020FDF726FD6946012030
:102A3000FEF72CFB401C0DD001208DF810004FF448
:102A40007A70ADF8120004A800F044FAFEF71CFDFD
:102A500005B000BD0CA10020FDF70EFDFEE7000053
:102A6000A82F0000D72C0000372E0000632F000095
:102A7000252E00005735313030206D656D6F72792D
:102A800020696E69740D0A0057495A43484950201D
:102A9000496E697469616C697A6564206661696C04
:102AA0002E0D0A0070B500244FF4FA7500210F2096
:102AB000FFF760F82846FEF7F7FC01210F20FFF72B
:102AC00059F82846FEF7F0FC641C032CEEDB70BDC1
:102AD0002DE9F74F804640F2294101EB082082B0F2
:102AE00017468346FDF7CCFE04464FF4856101EBA3
:102AF00008208246FDF7C4FE04EB00201FFA80F98F
:102B00001A20FDF7BDFE4FEA48060324B4402040DA
:102B1000F040012181404FF0FF3000EB812505EAB4
:102B200009054046FEF769FB284480B200901A2050
:102B3000FDF7A6FE2040F0400121814088B2E9194E
:102B4000B1EB802F19D91A20FDF79AFE2040F040F2
:102B500001218140C5EB812084B22246039900986F
:102B6000FDF7AAFE03980519381B84B24046FEF70C
:102B700044FB80B22246294602E03A460399009877
:102B8000FDF79AFE09EB070084B2210A5046FDF7D3
:102B9000BFFE05B0E1B25846BDE8F04FFDF7B8BE44
:102BA0002DE9F041044640F2294000EB04250E4691
:102BB0002846FDF765FE07464FF4856000EB0424C8
:102BC0002046FDF75DFE07EB0020304486B2310A57
:102BD0002046FDF79DFEF1B22846BDE8F041FDF725
:102BE00097BE2DE9F74F804640F2254101EB0820C2
:102BF00082B017468346FDF743FE044640F2244167
:102C000001EB08208246FDF73BFE04EB00201FFA93
:102C100080F91B20FDF734FE4FEA48060324B44038
:102C20002040F040012181404FF0FF3000EB812532
:102C300005EA09054046FEF723FB284480B20090D0
:102C40001B20FDF71DFE2040F0400121814088B28D
:102C5000E919B1EB802F19D91B20FDF711FE204097
:102C6000F04001218140C5EB812084B222460399C6
:102C70000098FDF76BFE03980519381B84B2404697
:102C8000FEF7FEFA80B22246294602E03A46039950
:102C90000098FDF75BFE09EB070084B2210A50465D
:102CA000FDF736FE05B0E1B25846BDE8F04FFDF73E
:102CB0002FBE0078704701707047010540F010008A
:102CC00040EA117000F0A0011520FDF721BE704709
:102CD00070477047704708B52C2000906846FEF793
:102CE00023FF009A01219140C0F8081508BD10B5D6
:102CF0001520FDF7C5FD00F0A00010BD10B5162091
:102D0000FDF7BEFD00F00F0120F0100000EB0120E8
:102D100010BD000010B50446014606220920FDF74B
:102D2000CBFD042204F10E010120FDF7C5FD0422B4
:102D300004F10A010520FDF7BFFD0422A11D0F20AB
:102D4000FDF7BAFD06480178A1744178E1748178F5
:102D50002175C07860750248401E0078A07510BDCE
:102D60007D0000200020FDF78BBD70B504461920C2
:102D7000FDF786FD20701820FDF782FD054617201F
:102D8000FDF77EFD05EB0020608070BD2DE9F04170
:102D90000E460746002400F0B1F84FF0FF38032537
:102DA000E7B10020395C21444CB2102C1EDC401CE1
:102DB00040B20428F6DB00241B20FDF761FD610012
:102DC00005FA01F290433A5D8A401043C1B21B20DC
:102DD000FDF79EFD641C64B2042CEDDB06B30021FC
:102DE0000846325C114449B2102902DD4046BDE874
:102DF000F081401C40B20428F3DB00241A20FDF7C8
:102E00003FFD610005FA01F29043325D8A401043B4
:102E1000C1B21A20FDF77CFD641C64B2042CEDDB0A
:102E20000020E4E708B56A4601210020FFF700FC16
:102E30009DF8000008BD08B52C2000906846FEF7FC
:102E400073FE009A01219140C0F80C1508BDC1B273
:102E500021F01001C0F3032001431620FDF758BDF7
:102E600010B50446014606220920FDF76FFD042235
:102E700004F10E010120FDF769FD042204F10A01AD
:102E80000520FDF763FD0422A11D0F20FDF75EFD67
:102E90000648A17C0170E17C4170217D8170617DDB
:102EA000C1700249A07D491E087010BD7D00002040
:102EB00010B5044630F0380002D04FF0FF3010BD9E
:102EC0000020FDF7DDFC40EA04010020FDF720FDB5
:102ED000002010BD10B5044601781920FDF718FD3B
:102EE0006088010A1720FDF713FDA178BDE81040A6
:102EF0001820FDF70DBD00207047704700B585B064
:102F0000062269460920FDF7D7FC042202A9012008
:102F1000FDF7D2FC042203A90520FDF7CDFC042215
:102F200004A90F20FDF7C8FC80210020FDF7F0FC6C
:102F30000020FDF7A5FC062269460920FDF706FDE5
:102F4000042202A90120FDF701FD042203A90520A6
:102F5000FDF7FCFC042204A90F20FDF7F7FC05B0E7
:102F600000BD01B56A4601210020FFF78DFB08BDB9
:102F70000338FDD870470000010000000000000089
:102F800001020000FA00030000010220000000001E
:102F90000D0E0F100B0C1819303132333435363713
:102FA000383941424344454602020202020202020B
:102FB000020202020202020200802F2D2E2C0000CB
:102FC000E02F000000000020D4000000C40C00002E
:102FD000B4300000D40000200C290000D40C000004
:102FE0000000367500000000C0A8016A0000000063
:102FF00000000000000000000000000000000000D1
:1030000000000000000000001301000000000000AC
:1030100000000000000000000000000000000000B0
:1030200000000000000000000000000000000000A0
:1030300000000000E7E7E7E7C2C2C2C2E7C2C3C4BC
:10304000C5C6C7C80805FF0200C000000000000098
:103050000000000000000000000000000000000070
:10306000000000000002573531303000CF2C000046
:10307000D12C0000D52C0000D32C0000B32C000074
:10308000B72C000000000000000000000008DC0079
:10309000ABCDC0A80175FFFFFF00C0A80101080863
:1030A000080802000000000000300040004000401E
:0430B0000090D003B9
:0400000500000201F4
:00000001FF
