:020000040000FA
:10000000E82A0020150200001D0200001F02000067
:100010002102000023020000250200000000000071
:1000200000000000000000000000000027020000A7
:1000300029020000000000002B0200002D02000039
:100040002F0200008D030000750800002F02000041
:100050002F0200002F0200002F0200002F020000DC
:100060002F0200002F0200002F0200002F020000CC
:100070002F0200002F0200002F0200002F020000BC
:100080002F0200002F0200002F0200002F020000AC
:10009000410600002F0200002F0200002F02000086
:1000A0002F0200002F0200002F0200002F0200008C
:1000B0002F0200002F0200000000000000000000DE
:1000C0002F0200002F0200002F0200002F0200006C
:1000D0002F0200002F0200002F0200002F0200005C
:1000E0002F0200002F0200002F020000000000007D
:1000F000000000002F020000000000002F0200009E
:1001000000000000000000000000000000000000EF
:1001100000000000000000000000000000000000DF
:1001200000000000000000000000000000000000CF
:1001300000000000000000000000000000000000BF
:1001400000000000000000000000000000000000AF
:10015000000000000000000000000000000000009F
:10016000000000000000000000000000000000008F
:10017000000000000000000000000000000000007F
:10018000000000000000000000000000000000006F
:10019000000000000000000000000000000000005F
:1001A000000000000000000000000000000000004F
:1001B000000000000000000000000000000000003F
:1001C000000000000000000000000000000000002F
:1001D000000000000000000000000000000000001F
:1001E000000000000000000000000000000000000F
:1001F00000000000000000000000000000000000FF
:10020000DFF80CD000F062F800480047F912000057
:10021000E82A00200648804706480047FEE7FEE738
:10022000FEE7FEE7FEE7FEE7FEE7FEE7FEE7FEE7A6
:10023000990600000102000040EA01039B0703D079
:1002400009E008C9121F08C0042AFAD203E011F815
:10025000013B00F8013B521EF9D27047D2B201E0D7
:1002600000F8012B491EFBD270470022F6E710B5BB
:1002700013460A4604461946FFF7F0FF204610BD14
:10028000421C10F8011B0029FBD1801A704703465D
:1002900011F8012B00F8012B002AF9D118467047FC
:1002A00030B50B46014600202022012409E021FA46
:1002B00002F59D4205D303FA02F5491B04FA02F543
:1002C0002844151EA2F10102F1DC30BD064C074D99
:1002D00006E0E06840F0010394E807009847103416
:1002E000AC42F6D3FFF790FF5030000070300000B2
:1002F00010B50B46024603A1054800F0CFFC0448A8
:1003000010BD00005B25735D2025730D0A00000001
:10031000E809002000F01F020121914040098000FF
:1003200000F1E020C0F88012704700F01F020121A8
:1003300091404009800000F1E020C0F88011704732
:1003400000F01F02012191404009800000F1E020EF
:10035000C0F80011704700F01F02012191404009D0
:10036000800000F1E020C0F8001270474907090E34
:10037000002806DA00F00F0000F1E02080F8141DDC
:10038000704700F1E02080F80014704770B5144CFD
:10039000D4F80001002628B1D4F80403C00701D026
:1003A000C4F80061D4F80C010E4D40B1D4F8040338
:1003B000000704D5C4F80C61286900B18047D4F85F
:1003C000100100280BD0D4F80403C00607D5C4F8E8
:1003D0001061E868002802D0BDE87040004770BD99
:1003E000001000402800002070B50B4B0646144654
:1003F00018780D4608B900F0D5FA002000F059FD34
:1004000022462946304600F009F80446002000F054
:1004100052FD204670BD00005407002070B50E4606
:10042000144900EB400001EBC0051446E86A18359A
:1004300020B101280FD0022805D113E0284600F092
:10044000E5FAA04201D2002411E0224631462846B6
:1004500000F002FC0BE0284600F0D8FAA042F4D2EB
:100460000446F2E73146284600F0C9FB0446204620
:1004700070BD00005407002070B505460C460846C4
:10048000FFF7FEFE024621462846BDE87040FFF712
:10049000ABBF0FB408B504A900916A46039900F0F8
:1004A00003F801B05DF814FB2DE9F04198B0064661
:1004B00007A8029040200025CDE90305CDE90556A7
:1004C00090460C4614F8011B002973D0252908D04A
:1004D00002A800F075FB05980028F3DA18B0BDE813
:1004E000F081002001212278232A1ED02B2A19D046
:1004F0002D2A02D0302A08D102E040F0010001E0AC
:1005000040F00200641C0029EDD100222178A1F105
:1005100030030A2B0CD202EB820201EB4202303A8A
:10052000641CF3E740F00400ECE740F00800E9E762
:100530000023CFB22E2F0BD114F8011FA1F13007E9
:100540000A2F05D203EB830301EB4303303BF3E7B0
:100550006C290DD068290BD0702954D00BDC2529CB
:1005600016D0582931D063290CD0642913D114E056
:1005700014F8011FECE7732934D075291BD07829B2
:1005800009D122E0D8F80000011DC8F80010017858
:1005900002A800F015FB641C9DE7D8F800100F1DA1
:1005A000C8F800700968CDE900200A2202A800F00E
:1005B00039FAF0E733E0D8F800100F1DC8F80070E2
:1005C0000968CDE900200A2208E0D8F800100F1DC4
:1005D000C8F800700968CDE90020102202A800F0D8
:1005E00085FAD8E7D8F80000011DC8F800100768A0
:1005F00017F8011B0029CED002A800F0E1FA0598F7
:100600000028F5DAC7E7D8F80000011DC8F8001087
:1006100001680820CDE9000503461022DEE70598B1
:1006200000287FF75BAF049820B1024607A9304647
:10063000FFF7DAFEDDE90410084405904EE70000FC
:100640007CB5144C606A01902078002821D00120EC
:10065000FFF76BFE6568002666600120FFF770FEFD
:10066000E169002915D0E80703D08DF800606846DD
:100670008847A80705D501208DF80000E169684684
:100680008847680705D502208DF80000E1696846B3
:1006900088477CBD2800002030B54FF080500022F4
:1006A0008300D0F83011C3F80C21C3F81021624B3D
:1006B0001A60624B1B68624C2360604B1B1D1B68F9
:1006C000241D23605D4B08331B68241D23605B4B96
:1006D0000C331B68241D2360584B10331B68241DEA
:1006E0002360564B14331B68241D2360534B18336F
:1006F0001B68534C20342360504B1C331B68241D53
:1007000023604E4B20331B68241D23604B4B243346
:100710001B68241D2360494B28331B68241D23605C
:10072000464B2C331B68241D2360444B30331B681D
:10073000434C40342360414B34331B68241D2360F9
:100740003E4B38331B68241D23603C4B3C331B68F5
:10075000241D2360394B40331B68241D2360012472
:10076000082902D1D0F8343113B1082904D006E0A9
:10077000354B3449196005E0D0F8343113B10829FC
:1007800004D006E0314BFB21196005E0D0F834318C
:1007900013B1082908D00EE090F858322C480168AF
:1007A00063F30301016002E0D0F834311BB9294939
:1007B0004FF40070086028480168C90702D06FF044
:1007C000010101602548016841F470010160BFF337
:1007D0004F8FBFF36F8F4FF01021D1F80002002828
:1007E00003DBD1F80402002822DA1D4B1C601D48EF
:1007F0000468002CFCD01224C1F800420568002DCA
:10080000FCD0C1F8044201680029FCD01A600168DC
:100810000029FCD0BFF34F8F10487C380168124A82
:1008200001F4E06111430160BFF34F8F00BFFDE7AA
:100830000F490E48086030BD380500400404001020
:1008400020C50040488103008C56004018F5004048
:10085000E40E0040409602400004004088ED00E0B5
:1008600004E5014000E401400400FA050090D003D3
:10087000D800002001480068004700001C0000204C
:1008800070B50C4C0546A068804720698047E16937
:100890000F208847E169C5F307208847E169E8B27E
:1008A0008847A0698047054660698047E0688047BF
:1008B000284670BD8C0000202DE9F047134C81467E
:1008C0001746A0688846002580472069804715E0C4
:1008D00020698047E1690F20884709EB0506E16937
:1008E000C6F307208847E169F0B28847A0698047CE
:1008F00008F80500606980476D1CADB2BD42E7D3C2
:1009000060698047E068BDE8F04700478C00002040
:1009100070B50D4C05460E46A0688047206980479B
:10092000E269F0209047E169C5F307208847E16953
:10093000E8B28847E1693046884760698047E068E7
:10094000BDE87040004700008C0000202DE9F04712
:10095000134C81461746A0688846002580472069C9
:10096000804715E020698047E169F020884709EB5E
:100970000506E169C6F307208847E169F0B28847B8
:10098000E16918F805008847606980476D1CADB2C1
:10099000BD42E7D360698047E068BDE8F0470047A3
:1009A0008C00002010B5124C02202061606111A063
:1009B000A06104F17800E0614FF400702062002033
:1009C000A06260620BA1A164E06204F51E71E164A3
:1009D0001021A065C4E91410E06509A1E01DFFF72E
:1009E00056FC08A12046FFF752FC2020A07110BD44
:1009F000540700205465726D696E616C0000000040
:100A00005254540053454747455200000269C1689B
:100A10008A4203D88068401A104400E0501A401EF1
:100A2000704700002DE9FC5F0E008146DDE90C47B0
:100A3000C6F1000098469346824600D40846012538
:100A400003E000BF90FBFBF06D1C5845FADAA845A7
:100A500000D9454624B1002E01DB780700D5641E7D
:100A6000B80702D5B8F1000F0FD0F8070DD164B167
:100A7000A5420AD220214846641E00F0A1F8D9F808
:100A80000C000028F3DABDE8FC9FD9F80C00002820
:100A9000F9DB002E02DA56462D2102E0780707D551
:100AA0002B21484600F08CF8D9F80C000028EADB2E
:100AB00007F0030002280FD1B8F1000F0CD15CB190
:100AC000A54209D230214846641E00F079F8D9F8D1
:100AD0000C000028F3DAD6E7CDE9004743465A4632
:100AE0003146484600F002F8CDE700002DE9F84F06
:100AF0008246DDE90A4B0126984691460D46084696
:100B0000374602E0B0FBF9F07F1C4845FAD2B84501
:100B100000D947465FEACB7017D1B4B15FEA8B705A
:100B200002D5B8F1000F02D0202000900BE0302059
:100B3000FBE75046641E009900F042F8DAF80C001A
:100B4000002838DB0CB1A742F3D3DAF80C000028F8
:100B500031DB00BFB8F1010F02D9A8F1010803E0B1
:100B6000B5FBF6F0484502D306FB09F6F2E7DFF8DD
:100B70004C8000BFB5FBF6F000FB165518F80010CE
:100B8000504600F01DF8DAF80C00002803DBB6FB35
:100B9000F9F6002EEED15FEACB700CD0002C0AD013
:100BA000A74208D220215046641E00F009F8DAF866
:100BB0000C000028F2DABDE8F88F000028300000B1
:100BC00010B50446D4E90130421C934205D3236892
:100BD0001954A260E068401CE060D4E9010282423E
:100BE00009D121682069FFF7FFFBA168884203D083
:100BF0004FF0FF30E06010BD0020A06010BD2DE977
:100C0000F047C4681746894606464FF00008306929
:100C1000A04201D9051B02E0B168201A0D1AB06884
:100C20006D1E001BA84200D80546BD4200D33D46BC
:100C300070682A4620444946FFF7FEFAB0687F1BD9
:100C40002C44A844A944A04200D10024F460002F01
:100C5000DDD14046BDE8F0872DE9F04104468846E5
:100C6000D4E90207C51BE168606816460844B5422E
:100C700006D94146FFF7E0FAB819E060BDE8F08117
:100C80002A464146FFF7D8FA761B08EB05013246A3
:100C90006068FFF7D1FAE660F0E700000FB4084B98
:100CA00010B504A902AA039800F01CF8044602A992
:100CB000002000F0F3F8204610BC5DF814FB0000A3
:100CC0009D0E000002E008C8121F08C1002AFAD1D8
:100CD00070477047002001E001C1121F002AFBD1BC
:100CE000704700002DE9FF4F8BB09A460F4605462E
:100CF000002606E025280BD052460D9990476D1C22
:100D0000761C28780028F5D10FB03046BDE8F08F6A
:100D10000024A0460122604900E0044315F8013F89
:100D2000203B02FA03F00842F7D128782E2817D189
:100D300015F8010F44F004042A280ED06FF02F029A
:100D40002878A0F1300109290AD808EB880102EBC4
:100D5000410100EB01086D1CF2E757F8048B6D1C94
:100D6000287869283ED006DC0028CDD063280BD037
:100D7000642804D136E0732810D075284BD0524631
:100D80000D999047761C85E017F8040B8DF800004C
:100D900000208DF80100E946012003E057F8049B8C
:100DA0004FF0FF3061074FF0000401D40AE0641CEB
:100DB00044450DDA8442FADB19F804100029F6D113
:100DC00006E0641C8442FCDB19F804100029F8D109
:100DD000264404E019F8010B52460D999047641E11
:100DE000F8D257E001CF4FF00A0B002802DA404258
:100DF0002D2102E0210504D52B218DF8241001219D
:100E000003E0E10705D02021F7E70DF12009089163
:100E10000CE00021F9E701CF4FF00A0BF9E7594642
:100E2000FFF73EFA01F1300209F8012D0028F6D152
:100E3000ADEB090000F1200B600701D44FF0010871
:100E4000D84502DDA8EB0B0000E00020804600241E
:100E500006E009A85246005D0D999047641C761C77
:100E600008988442F5DB04E0302052460D99904703
:100E7000761CB8F10001A8F10108F5DC05E019F8CD
:100E8000010B52460D999047761CBBF10001ABF166
:100E9000010BF4DC6D1C34E7092801000A68531CBF
:100EA0000B6010707047006890FAA0F000BA00BAAA
:100EB000704700F003B800F009B8000072B60248AD
:100EC0000168491C0160704724000020034908683C
:100ED000401E086000D162B6704700002400002068
:100EE0002DE9FC410646C0074FF000050ED0104F1B
:100EF00000240122385D009500231146019500F081
:100F0000C7FD641C042CF4D300F01CF8B0070DD509
:100F1000074E0024361D0022305D03230095114644
:100F2000019500F0B5FD641C042CF4D3BDE8FC81F0
:100F3000203000000249085C012100F04ABE000098
:100F40002030000010B500242046FFF7F3FF641C9A
:100F5000042CF9D310BD006890FAA0F000BA7047D5
:100F600070B50F4DA8680F4CC4F800020E486969AF
:100F7000C07C88470E490D4808600021C4F8101154
:100F800001202061D4F81021002AFBD0C4F81011F0
:100F9000A96841F00401C4F80012606070BD00004F
:100FA000280000200010004030040020120700201C
:100FB000041500404FF080400021C0F800110121CD
:100FC000C0F80010D0F800110029FBD070470000D5
:100FD00070B50446042802D94FF0FF3070BD40F2CE
:100FE000014000EB042005461021FFF791FC284644
:100FF000FFF746FC0028FAD140F2024000EB042043
:10100000FF21FFF785FC0D490120A0404A8882435B
:101010004A808A8882438A800A31002021F814009D
:10102000091F085540F2034000EB04242046FFF757
:1010300027FC0028FAD1012070BD000070000020BC
:1010400010B50C4606281ED2DFE800F003070B108F
:101050001418204601F048FF13E0204601F09EFEE0
:101060000FE02078BDE8104001F066BF01F0BEFE41
:10107000207006E0204601F071FF02E0204601F0FA
:10108000B8FE002010BD4FF0FF3010BD10B50C466B
:10109000024600210846092A2DD2DFE802F00508A1
:1010A000130F161A2C2C1E0001F06CFF21E00CB15E
:1010B0002046211DBDE8104001F0ACBE208801F0A3
:1010C00040FE16E001F057FE05E0208801F003FF26
:1010D0000FE001F057FE20800BE008488278227074
:1010E000C27862700279A2704279E27080792071D0
:1010F0006171002010BD4FF0FF3010BD8C0000204A
:1011000010B5044626A08AB000680890481C01D09B
:101110008DF8211023A018220068099022A0D0E9A0
:101120000010CDE9061022496846FFF785F8012135
:101130001E2000228DF813008DF808108DF8001085
:10114000012C02D0022C0BD108E04FF416708DF860
:101150000120ADF80C008DF8102001E08DF8011091
:10116000144801908DF81420684600F075FA0028A4
:1011700013D108A800F05CFB00280ED109A800F0EC
:1011800069FB002809D1082106A800F075FB00289A
:1011900003D10A2000F094FB00200AB010BD00002B
:1011A0006E196E6EC2C2C2C26EC2C3C4C5C6C7C803
:1011B000083000003D1500002DE9F04140F22641C5
:1011C000002601EB0025491C01EB00242846FFF70F
:1011D00057FB07462046FFF753FB00EB07200704A9
:1011E0003F0C09D02846FFF74BFB06462046FFF789
:1011F00047FB00EB062086B2BE42E7D13046BDE891
:10120000F0812DE9F041002406464FF4C045032744
:101210004FF001080EE01A20FFF732FB610007FAD9
:1012200001F21040C84008FA00F188B2641C05EBD6
:10123000802564B2B442EEDB2846BDE8F0812DE99A
:10124000F0414FF48461002601EB0025491C01EBBD
:1012500000242846FFF714FB07462046FFF710FB43
:1012600000EB072007043F0C09D02846FFF708FBD6
:1012700006462046FFF704FB00EB062086B2BE427E
:10128000E7D13046BDE8F0812DE9F0410024064663
:101290004FF4804503274FF001080EE01B20FFF7B5
:1012A000EFFA610007FA01F21040C84008FA00F1B5
:1012B00088B2641C05EB802564B2B442EEDB28469C
:1012C000BDE8F08110B503210B2000F013FC0321D1
:1012D0000C2000F00FFC0321182000F00BFC032170
:1012E000192000F007FC012000F0FAF8BDE81040DA
:1012F0000120FFF7F5BD000008B5434C4FF0000892
:10130000FA20C4F8088000F0EBF8FFF7DBFF01F0EB
:101310004BF9FA2000F0E4F801F0D1FDFA2000F0DA
:10132000DFF801F01CFDFA2000F0DAF801F0B2FB62
:1013300001F0FEFB35A10020FFF79EF836A100204A
:10134000FFF79AF83DA10020FFF796F840A1002092
:10135000FFF792F8002362880221184601F0A0F8F6
:1013600018B141A10020FFF787F8A088264B009014
:101370000C330B2242A1002000F0AAFFFFF71AFE57
:101380001E210220FFF7BCFE40A14748FFF786FC64
:1013900000250020FFF710FF0646284307D100274D
:1013A0000121414801F046FA7F1C642FF8DB15B19A
:1013B00016B96D1E0FE076B1A069134B00903B4D3E
:1013C00010334FF480723A49002000F0F3FD002101
:1013D000374801F02FFA20780028DAD0344A84F810
:1013E00000802A3A33A1A2F22A20FFF757FC3348A3
:1013F00001F04CF882B2A088034B00900C332F49C7
:10140000002000F065FFC4E700000020496D6D6F0B
:101410007274616C730D0A000D0A2A2A2A496D6DD7
:101420006F7274616C7320526F626F7469632074A1
:1014300065616D2A2A2A0D0A000000000D0A496E16
:10144000697469616C697A65205350490D0A00001E
:101450000D0A496E697469616C697A652045746822
:1014600065726E65740D0A0025643A536F636B658F
:1014700074204F70656E204661696C0D0A00000093
:10148000436F6E6E65637465640D0A006D79206E3E
:101490007266206368616E6E656C20697320626C91
:1014A000616820626C616800DC010020A086010098
:1014B0003003002025730D0A00000000DC0000202E
:1014C0001CB506490020FFF7BBFD04490120FFF7CA
:1014D000B7FD69460820FFF7D9FD1CBDB400002008
:1014E00070B5040006D04FF47A75284600F084FBEE
:1014F000641EFAD170BD000070B50C494FF47050F5
:1015000008600B4C00256570257000F087FE2021D7
:101510000848FEF7AAFEE56214202563FEF705FFE2
:1015200005490320C1F80002002070BD08F5014004
:1015300028000020340700200010004038B5007853
:10154000A0B301283DD002282FD1244800F02CF967
:101550000028FAD0214C22A104F125006279FFF77E
:101560009DFB04F125010020FEF786FF227A21A1D0
:1015700004F12500FFF792FB04F125010020FEF79E
:101580007BFF0F200090684600F0CEFAD0F80435BB
:10159000009C012202FA04F121EA0304C0F8084584
:1015A0001940C0F80C151748027038BDFFE716A1A6
:1015B00018A0FEF79DFEBDE8384001460020FEF76A
:1015C00068BF17A113A0FEF793FE01460020FEF7A7
:1015D00053FFBDE8384000F027B8000001030020A9
:1015E0005B23206F66207061636B6574735D2025DB
:1015F000640D0A005B5265706F72745D2025640D86
:101600000A00000000000020537563636573732EA9
:10161000000000005458205061796C6F6164000034
:101620004661696C65642E00094810B5007860B1A8
:101630000120FEF77AFE07480021816201624162C3
:101640000120FEF77DFE002010BD082010BD000027
:10165000280000207005002070B505007ED0454CA4
:10166000207818B1FFF748FF00287DD16868E06155
:10167000182229464048FEF7DFFD0025656020213D
:101680003E48FEF7F2FDE562256301F089F9002886
:101690006DD03B494FF0E7300860091D4FF04330F3
:1016A0000860091D37480860091D3748086000F0C8
:1016B000B5FD314A0020183202F5947100EB800329
:1016C00003EB4013134441F82030401C0828F5DB9D
:1016D0002E4A002002F5947100EB800303EB4013C7
:1016E000134441F82030401C0828F5DB2849042029
:1016F0000860274808380560264840F20221C0F8F3
:101700000012264A24491160111D08602248001D5C
:10171000091D08601F481030091D0860091D204878
:1017200008601D48F038091D08601D48001D091D8E
:101730000860091D1B4808600F4E707C00F0030113
:101740000120FEF713FEB07C00F003011420FEF729
:101750000DFE1420FEF7F4FD657002E005E003E0E5
:1017600005E001202070002070BD0E2070BD072014
:1017700070BD000028000020300400203407002045
:101780001C150040E743C323A363E3139C0500201B
:1017900010A5004000A000400011004060F501408D
:1017A00040A100400010004070B505461E4800787A
:1017B00080B385B31D4CA06A70B30120FEF7B5FD60
:1017C000606A54F820100A782A7054F8201049787A
:1017D000697054F820108978A97054F8201009799C
:1017E000297154F82010C978E97054F82010681D48
:1017F000491DFEF721FD606A401C6062082801D384
:1018000000206062A06A401EA0620120FEF798FDE1
:10181000002070BD01E002E003E00820F9E70E209F
:10182000F7E70520F5E7000028000020C4060020A7
:10183000074910B54A780AB1112010BD30B10068CF
:101840004863012001F068F8002010BD0E2010BD93
:1018500028000020074910B54A780AB1112010BDB0
:1018600030B100688863022001F056F8002010BDF6
:101870000E2010BD2800002010B50C460F494978F5
:1018800009B1112010BD18B1082C03D9072010BDD3
:101890000E2010BD0146094822463C30FEF7CCFC24
:1018A0000648C4F108023430FF210474D140817429
:1018B000042001F031F8002010BD000028000020B5
:1018C0000649497809B111207047642801D90720D9
:1018D000704702493431C874002070472800002046
:1018E0000E4810B50078A0B10D4CA06A98B1012047
:1018F000FEF71BFDA06A401EA062606A401C606289
:10190000082801D3002060620120FEF719FD0020A5
:1019100010BD082010BD4FF4807010BD28000020BD
:101920007005002070B51A48417809B1112070BDCA
:10193000184C4FF0FF31C4F808130025C4F81051BB
:101940001549C160816841F00401C4F800121021FA
:10195000C4F80413042141700D48104A3430817CCE
:1019600011600E49C07C28390860091F0C480860C6
:1019700001209434FEF7CEFC0120FEF7E1FC256740
:101980006567E567012044F8900C002070BD0000F9
:101990002800002000100040091C00003015004005
:1019A000120700200D4A5078042802D040F201109E
:1019B00070470B490020C1F80002431EC1F80833EC
:1019C000D060C1F810010123C1F81030D1F81031F6
:1019D000002BFBD050700020704700002800002032
:1019E000001000402DE9F041264F0546387840B1FF
:1019F00055B1287868B120280BD8234E317829B109
:101A000009E00820BDE8F0810E20FBE7F17C884268
:101A100001D90920F6E71D4CA06A082801D304204B
:101A2000F0E76878082801D30720EBE70120FEF7EC
:101A30007CFC206A2522294654F82000FEF7FCFB96
:101A400010486A782C30815C491C01F003018154F4
:101A5000206A54F82020401C08281171206201D30C
:101A600000202062A06A401CA0620120FEF768FCF2
:101A7000707828B9307C18B9787808B900F050FE31
:101A80000020BFE72800002030040020700500205F
:101A90002DE9FF411C46DDE90A7815460E466846E9
:101AA00000F050F846EA450141EA840141EA072284
:101AB00042EA0841009A00EB8200C0F80017BDE836
:101AC000FF812DE9FF411C46DDE90A7815460E46E7
:101AD000684600F053F846EA450141EA840141EACC
:101AE000072242EA0841009A00EB8200C0F8001782
:101AF000BDE8FF8138B50C460090684600F014F848
:101B0000009A002100EB820041EA8401C0F800172E
:101B100038BD1CB5002100910B46012201911146F0
:101B2000FFF7CFFF1CBD00000168202902D24FF053
:101B3000A040704701F01F0101600148704700009C
:101B4000000300500168202902D24FF0A0407047E6
:101B500001F01F01016001487047000000030050C0
:101B60000168202902D24FF0A040704701F01F0108
:101B700001600148704700000003005001682029FF
:101B800002D24FF0A040704701F01F0101600148F0
:101B9000704700000003005001B56846FFF7EEFFF4
:101BA000009A01219140C0F8081508BD38B50124FC
:101BB0000090684631B1FFF7B7FF00998C40C0F83C
:101BC000084538BDFFF7B0FF00998C40C0F80C45C0
:101BD00038BD38B501240090684631B1FFF7B2FF37
:101BE00000998C40C0F8084538BDFFF7ABFF00995D
:101BF0008C40C0F80C4538BD002802D00149800156
:101C000008477047013000002DE9F05F5548002279
:101C10000127006818B15448806A082803D3BDE83A
:101C2000F05FFFF79DB9DFF83C9109F10809D9F899
:101C300000004D49703101EB800609F104010C6888
:101C4000494B35884E33AC42587805D1B478B4EB63
:101C5000500F01D1012200274008B07008689A4651
:101C600030804248424C017D19B19AF80110C907F1
:101C700010D0A1683F4B41F00801C3F800123C4965
:101C8000394D007849694FF0000B2C35B8B3012865
:101C900047D102E0FFF764F94EE03748836AB3F1B9
:101CA000000E2DD0436A50F823C09CF80180D9F86B
:101CB00000C0E04524D196F803C0BCF1010F0DD15E
:101CC00062B95B1C4362082B01D3C0F824B0AEF1AB
:101CD00001028262626842F0010262600122F270D7
:101CE000426A50F82200A06100788847A16908780C
:101CF000287011F8052BA81CFEF79EFA06E009E0F3
:101D000086F803B00020884785F800B09AF80100F3
:101D1000687006E0002088479AF80000287085F86F
:101D200001B005206070D9F800001449086013481C
:101D3000283805601248E060002F10D0B178D9F83B
:101D40000000C0B200F078FA002808D0606840F0C7
:101D500004006060BDE8F05F1420FEF7FCBABDE847
:101D6000F09F000000140040C40600203004002052
:101D70002800002000100040700500202C150040B5
:101D8000851D000010B5094CA068094940F0040009
:101D9000C1F8000207486169C07C884707490648C6
:101DA00008600748E0600420607010BD2800002033
:101DB00000100040300400201207002004150040ED
:101DC000091C000070B5164CA068164AC2F8000243
:101DD000A06A15490860154B091D9889823808606A
:101DE0001348012140F80C1F0021C0F83411C0F83D
:101DF0003811104D4FF4E050286050142D1D28600C
:101E0000C2F80C11187810B96169002088470B4995
:101E1000094808600A48E0600320607070BD000057
:101E2000280000200010004040A5004030040020A1
:101E300000A0004004F501401207002004150040F6
:101E4000811E000010B50C4C606840F0010060601D
:101E5000FFF746FD0948806A30B11420FEF77BFA8F
:101E6000BDE8104000F05CBC00206070BDE8104090
:101E70001420FEF770BA0000280000207005002032
:101E80002DE9F047414A4FF4E05010604049D1F845
:101E90000C31DFF8009100273F4CB9F80E004E14CA
:101EA000DFF8F8800125E3B33D4B1B68CBB3256118
:101EB0001660D8F8041041F00101C8F80410D8F8F1
:101EC0002010401A401CC8F82400FFF709FD99F8BB
:101ED000000088B109F2E220017869B14078410838
:101EE00030480068C0B200F0A7F928B1D8F8040063
:101EF00040F00400C8F804002B48806A50B199F8FB
:101F00001000012806D01420FEF725FABDE8F0479E
:101F100000F006BC88F80170BDE8F0471420FEF719
:101F20001ABAD8F820C0BCF1010CC8F820C00BD2F6
:101F300025611660401CC8F82400D8F8040040F061
:101F40000200C8F80400E5E7D8F808000F4640F0A2
:101F50000802C1F80022D8F81800D8F81410007848
:101F6000884710481149283801601148C8F80C000A
:101F7000022088F8010025600448001F0660D4F89C
:101F80004401002800D03D60BDE8F08708F501401D
:101F9000001000403004002000A000402800002075
:101FA000001400402C15004070050020F0060020B1
:101FB000C51D00002DE9FF4F002583B01F46904648
:101FC0000446042803D9681E07B0BDE8F08F4FF41B
:101FD000806000EB0420FEF753FC834600F00F0006
:101FE000022808D0032806D0042804D0052802D0EF
:101FF0006FF00400E8E7B8F1000F05D0DFF8C891F2
:1020000039F8140018B120E06FF00D00DCE740F261
:10201000034000EB0426012000FA04FA2046FFF7F3
:10202000CBF805463046FEF72BFC38B166490A3935
:1020300049881AEA010F06D01DB106E06FF00300CF
:10204000C2E70020C0E7002DE8D00BF00701DFF861
:1020500078A140F201404FF0800BAAF1040A00EB96
:102060000426022922D003297CD0042952D02946F3
:10207000204600F0D9FD29F8145030464021FEF7E3
:1020800047FC3046FEF7FCFB0028FAD139F8141063
:10209000491B0904090C29F8141003D01AF804107C
:1020A00041F001010AF8041028468DE739F81400C0
:1020B0004D4670BB08226946204600F04DFD304673
:1020C0004021FEF725FC3046FEF7DAFB0028FAD166
:1020D0009DF8000038709DF8010078709DF80200AE
:1020E000B8709DF80300F87010999DF804000880FE
:1020F0009DF8051001EB0020109908809DF806005E
:102100009DF807105BE02A462046049900F024FD64
:10211000B3E72AE039F814004D4630BB0222694685
:10212000204600F019FD30464021FEF7F1FB304615
:10213000FEF7A6FB0028FAD19DF800009DF80110DB
:102140006FF0010202EB0020084480B240F2EA5135
:1021500025F81400884206D92046FEF739FF6FF4AF
:102160007A7031E702E00AF804B003E039F81400AD
:102170004D4630B135F8145040464545C3D9054663
:10218000C1E706226946204600F0E6FC30464021C1
:10219000FEF7BEFB3046FEF773FB0028FAD19DF830
:1021A000000038709DF8010078709DF80200B8704A
:1021B0009DF80300F8709DF804009DF8051001EBF0
:1021C000002025F81400CEE77A000020054A18B157
:1021D00011B1C2E90401704703481061034850611E
:1021E000704700008C0000205D2D00005B2D00007A
:1021F000074A10B513889C05FDD518B111B1C2E985
:10220000060110BD034890610348D06110BD000075
:102210008C0000207F2F0000832F00000549002044
:1022200008624862886201F5AA71086248628862A1
:1022300070470000700500202DE9F041224C074650
:102240008846A06A08283DD2A4F5257120460A7860
:102250000026006A01F2E225012A03D04A7842B141
:10226000C97C02E0297820292CD854F8202011704C
:1022700002E054F820100E7054F82000A91C10F849
:10228000052BFDF7D9FF206A54F820104F700F4935
:10229000096854F82020917054F8202082F80480B6
:1022A000697854F8202041F30001491C401CD1708A
:1022B0002062082800D32662A06A401CA062012088
:1022C000BDE8F0810020FBE7C4060020481500406F
:1022D0002DE9F84F1E46DDF8288015468A4604464B
:1022E000042803D94FF0FF30BDE8F88F4FF4806029
:1022F00000EB0420FEF7C4FA00F00F00022804D01F
:10230000042802D06FF00400EEE7FDB130780090B1
:10231000717801EB00200090B17801EB0020009073
:10232000F17811EB0020009013D0B8F1000F13D01A
:1023300040F2034000EB04200746FEF7A1FA4228D2
:102340000DD022280BD06FF00600CDE76FF00D0006
:10235000CAE76FF00B00C7E76FF00A00C4E740F26E
:102360000C4000EB042004223146FEF7EFFA4FF454
:1023700082604FEA182100EB0420FEF7C9FA40F210
:10238000114008F0FF0100EB0420FEF7C1FA1B200A
:10239000FEF776FA610003228A401040C840012609
:1023A00006FA00F04FF6FF7101EA8020854200D95D
:1023B0000546DFF8CC80A6402046FEF740FF814668
:1023C0003846FEF75DFA38B1B8F80200064206D08A
:1023D0004D4504D9002087E76FF0030084E74D45A1
:1023E000EAD82A465146204600F03FFC04226946BE
:1023F0000F20FEF761FA0098E8B10020CDF8000048
:1024000040F2014000EB042006462021FEF780FA4E
:102410003046FEF735FA0028FAD140F2024000EBD0
:1024200004200446FEF72CFAC1060FD520461021E1
:10243000FEF76EFA1AE0042269460520FEF73CFA20
:10244000042210A10520FEF781FAD9E700070DD577
:1024500020460821FEF75CFA009820B10422694664
:102460000520FEF773FA6FF00C003DE7009820B1ED
:10247000042269460520FEF769FA284634E7000081
:102480007000002000000000000000000246002153
:10249000084601E0401C491C535C002BFAD17047F0
:1024A000F8B51E4617460D460446042802D94FF0DB
:1024B000FF30F8BD062D18D2DFE805F017030A0A31
:1024C0000A0A042269460F20FEF7F6F9009848B17F
:1024D00071076FF00500ECD496B1012D08D0022DE4
:1024E0000ED109E06FF00200F8BD6FF00400F8BDF6
:1024F00016F0210FFBD003E0B10601D53106F6D569
:102500002046FEF765FD06F0F0014FF48060294398
:1025100000EB0420FEF7FCF9224D57B92F88781CF8
:1025200080B2A0F57F412880F03902D14FF44040BD
:10253000288040F20440390A00EB0420FEF7E8F955
:1025400040F20540F9B200EB0420FEF7E1F940F259
:10255000014000EB042007460121FEF7D9F9384677
:10256000FEF78EF90028FAD10120A040698806F014
:1025700001028143A2400A436A80A9888143A9805D
:10258000084900200A3121F81400091F085540F2BB
:10259000034000EB04252846FEF772F90028FAD024
:1025A00060B2F8BD700000201CB50549D1E90001FA
:1025B000CDE900016946002000F004F81CBD0000D0
:1025C000483000002DE9FC410C460546012802D99F
:1025D0000020BDE8FC81224905EB450001EB4000ED
:1025E00021680160A1888180A078FFF792FAE078E5
:1025F000FFF78FFA0027207900973B463A46394685
:102600000197FFF75EFA6079FFF783FA154EA0781D
:1026100056F82510C1F8080556F82510E078C1F8DD
:102620000C0556F825102079C1F810056079FFF7E0
:10263000B3FA607856F825100006C1F8240556F85C
:1026400025102078C1F8540556F82500C0F8087107
:1026500056F825100120C1F8000556F82500B8E706
:10266000DC090020D000002010B552B1134B53F804
:1026700020001B1F18600023C0F80831C0F81C356B
:102680000EE0002010BD00BFC0F81C35D0F8084196
:10269000002CFBD0C0F80831D0F8184502F8014BE7
:1026A000491E0904090CEFD1D0F808110029FBD00C
:1026B000D0F818051070012010BD0000D0000020D7
:1026C00038B562B1154B53F820001B1F186000236A
:1026D000C0F8083112F8014BC0F81C450FE000208B
:1026E00038BD00BF12F8015BC0F81C55D0F8084196
:1026F000002CFBD0C0F80831D0F818450094491ED2
:102700000904090CEED100BFD0F808110029FBD054
:10271000D0F818050090012038BD0000D00000203E
:102720002DE9F05F3D4C4FF00108C4F824803C488F
:10273000DFF8F0A0A0F5A077416A3B4D4FF0000B09
:1027400050F82110A161387807F5307610B10128D2
:1027500043D10DE0087861698847A1690879307034
:1027600086F801B011F8052BB01CFDF765FD18E0E7
:10277000C87820B3387D10B30020814608783070C7
:1027800008794006000E7070CA78D2B1002210435A
:10279000707011F8052BB01CFDF74EFDB9F1000F5C
:1027A00011D0A06840F00800C5F800021120C5F85B
:1027B0000403F88920620220C4F80CA00CE0012078
:1027C000DBE70122E3E7A068C5F800021020C5F8A6
:1027D00004031648E06040466070A069144A4178DE
:1027E00011604078444608FA00F0111D08600B485B
:1027F0000F4934302439C07C0860081F066001206E
:10280000FDF788FD0120FDF79BFDC5F804B1C5F873
:1028100008B1C5F810B12C60BDE8F09F2800002079
:1028200070050020C51D000000100040451E00007E
:102830002C1500402DE9F04747780678DFF8D0A046
:10284000DFF8D09005464FF001084FF4FA6441B329
:10285000FFF7A8F826462046FFF7CEF94FF0FF31E4
:102860000120FEF74DFC8AF8008054468AF8038068
:102870003046FFF7C1F94F4628786071387D6073A4
:102880002348FFF7AFF80028F6D17869401C78613B
:102890003046FFF7B1F91E210220FEF731FC304629
:1028A0002FE0FFF77FF82046FFF7A6F93146012019
:1028B000FEF726FC20208AF8000056468AF803809E
:1028C0002046FFF799F9B0464E460020414603E006
:1028D0002A5C0B18401C5A71B842F9DB307D88F82D
:1028E00019000B48FFF77EF80028EED17069401CF4
:1028F00070612046FFF780F91E210220FEF700FCE0
:102900002046FFF779F9BDE8F047FFF70BB8000064
:10291000DC0200200000002010B50446C00704D0EF
:102920000F48FEF7C0FA0F490860A00706D50C480B
:10293000001DFEF7B8FA0B49091D086060070DD5A8
:1029400007480830FEF707FB0649083108600448CD
:102950000C30FEF700FB03490C31086010BD00008D
:102960005C0000201C1500400A48017A0A480160FA
:102970000A48492251B1012905D0032906D004296A
:1029800001D0002070473021816200E08262012086
:10299000704700003004002010150040280000207F
:1029A00070B500F041F8FFF7DFFF194C19492278A4
:1029B0007AB1012A0BD000220240607AB8B1164BDE
:1029C0001D1F01280ED0022807D0002513E0134A4E
:1029D00000E0134A4A610122EEE74FF6FF761E60DF
:1029E000104B03E0FF261E6040F207132B600A4BDA
:1029F000083B1860012549691540E07C8847A0899B
:102A0000872801D3012000E00020284070BD00008D
:102A100030040020280000203C150040692A0000F6
:102A20003D2A00002110010002480349807A086015
:102A300070470000300400200C150040084A074988
:102A400011600849497C491E090441EA00210143FB
:102A500041F08070111D0860704700000001010006
:102A6000141500405C00002007490648086007482C
:102A70000749407C401E41EA00400349091D0860A7
:102A80007047000006000300141500405C000020A1
:102A90002000000100B5154B85B00FCB8DE80F006D
:102AA00013491448FFF792FB13491448FFF7A0FBA2
:102AB00013A10020FDF7E0FC69460120FEF7E6FACD
:102AC000401C0DD001208DF810004FF47A70ADF845
:102AD000120004A800F042FAFEF7F2FC05B000BDB7
:102AE0000CA10020FDF7C8FCFEE700003830000014
:102AF0005F2D0000BF2E0000EB2F0000AD2E000068
:102B00005735313030206D656D6F727920696E698F
:102B1000740D0A0057495A4348495020496E697458
:102B200069616C697A6564206661696C2E0D0A00C2
:102B300010B5002400210F20FFF738F86420FEF7BD
:102B4000CFFC01210F20FFF731F86420FEF7C8FC0D
:102B5000641C032CEEDB10BD2DE9F74F804640F2DC
:102B6000294101EB082082B017468346FDF788FE15
:102B700004464FF4856101EB08208246FDF780FE94
:102B800004EB00201FFA80F91A20FDF779FE4FEAC6
:102B900048060324B4402040F040012181404FF01A
:102BA000FF3000EB812505EA09054046FEF729FBC9
:102BB000284480B200901A20FDF762FE2040F040C9
:102BC0000121814088B2E919B1EB802F19D91A206F
:102BD000FDF756FE2040F04001218140C5EB8120E9
:102BE00084B2224603990098FDF766FE0398051902
:102BF000381B84B24046FEF704FB80B222462946C9
:102C000002E03A4603990098FDF756FE09EB0700EB
:102C100084B2210A5046FDF77BFE05B0E1B258466A
:102C2000BDE8F04FFDF774BE2DE9F041044640F2D7
:102C3000294000EB04250E462846FDF721FE0746F5
:102C40004FF4856000EB04242046FDF719FE07EBE6
:102C50000020304486B2310A2046FDF759FEF1B219
:102C60002846BDE8F041FDF753BE2DE9F74F8046F9
:102C700040F2254101EB082082B017468346FDF75C
:102C8000FFFD044640F2244101EB08208246FDF797
:102C9000F7FD04EB00201FFA80F91B20FDF7F0FD83
:102CA0004FEA48060324B4402040F040012181400F
:102CB0004FF0FF3000EB812505EA09054046FEF79D
:102CC000E3FA284480B200901B20FDF7D9FD204094
:102CD000F0400121814088B2E919B1EB802F19D968
:102CE0001B20FDF7CDFD2040F04001218140C5EBC8
:102CF000812084B2224603990098FDF727FE0398AD
:102D00000519381B84B24046FEF7BEFA80B222464F
:102D1000294602E03A4603990098FDF717FE09EBB1
:102D2000070084B2210A5046FDF7F2FD05B0E1B27A
:102D30005846BDE8F04FFDF7EBBD007870470170D5
:102D40007047010540F0100040EA117000F0A0014A
:102D50001520FDF7DDBD704770477047704708B517
:102D60002C2000906846FEF7FBFE009A012191405E
:102D7000C0F8081508BD10B51520FDF781FD00F05D
:102D8000A00010BD10B51620FDF77AFD00F00F0170
:102D900020F0100000EB012010BD000010B504462B
:102DA000014606220920FDF787FD042204F10E01E9
:102DB0000120FDF781FD042204F10A010520FDF741
:102DC0007BFD0422A11D0F20FDF776FD064801784A
:102DD000A1744178E17481782175C07860750248EA
:102DE000401E0078A07510BD850000200020FDF772
:102DF00047BD70B504461920FDF742FD207018202C
:102E0000FDF73EFD05461720FDF73AFD05EB0020D6
:102E1000608070BD2DE9F0410E460746002400F0A9
:102E2000B1F84FF0FF380325E7B10020395C2144A9
:102E30004CB2102C1EDC401C40B20428F6DB0024EF
:102E40001B20FDF71DFD610005FA01F290433A5D7C
:102E50008A401043C1B21B20FDF75AFD641C64B2C6
:102E6000042CEDDB06B300210846325C114449B264
:102E7000102902DD4046BDE8F081401C40B2042824
:102E8000F3DB00241A20FDF7FBFC610005FA01F2D8
:102E90009043325D8A401043C1B21A20FDF738FDDD
:102EA000641C64B2042CEDDB0020E4E708B56A463C
:102EB00001210020FFF7D8FB9DF8000008BD08B5F0
:102EC0002C2000906846FEF74BFE009A01219140AD
:102ED000C0F80C1508BDC1B221F01001C0F30320E9
:102EE00001431620FDF714BD10B504460146062225
:102EF0000920FDF72BFD042204F10E010120FDF74E
:102F000025FD042204F10A010520FDF71FFD04221E
:102F1000A11D0F20FDF71AFD0648A17C0170E17C80
:102F20004170217D8170617DC1700249A07D491E83
:102F3000087010BD8500002010B5044630F0380040
:102F400002D04FF0FF3010BD0020FDF799FC40EAA1
:102F500004010020FDF7DCFC002010BD10B5044684
:102F600001781920FDF7D4FC6088010A1720FDF7CD
:102F7000CFFCA178BDE810401820FDF7C9BC0020A7
:102F80007047704700B585B0062269460920FDF7F5
:102F900093FC042202A90120FDF78EFC042203A960
:102FA0000520FDF789FC042204A90F20FDF784FC0D
:102FB00080210020FDF7ACFC0020FDF761FC06221B
:102FC00069460920FDF7C2FC042202A90120FDF791
:102FD000BDFC042203A90520FDF7B8FC042204A9C6
:102FE0000F20FDF7B3FC05B000BD01B56A46012115
:102FF0000020FFF765FB08BD000000000000000096
:103000000338FDD8704700000100000000000000F8
:1030100001020000FA00030000010220000000008D
:103020000D0E0F100B0C1819303132333435363782
:10303000383941424344454602020202020202027A
:10304000020202020202020200802F2D2E2C00003A
:103050007030000000000020DC000000C40C000004
:103060004C310000DC0000200C2A0000D40C0000D1
:10307000000038753A75000000000000C0A801FF8C
:103080000000000000000000000000000000000040
:103090000000000000000000000000000000000030
:1030A000130100000000000000000000000000000C
:1030B0000000000000000000000000000000000010
:1030C000000000000000000000000000E7E7E7E764
:1030D000C2C2C2C2E7C2C3C4C5C6C7C80805FF0290
:1030E00000C0000000000000000000000000000020
:1030F0000000000000000000000000000002573542
:1031000031303000572D0000592D00005D2D00009A
:103110005B2D00003B2D00003F2D00000000000053
:10312000000000000008DC00ABCDC0A8017EFFFF5E
:10313000FF00C0A801010808080802000000000004
:0C31400000300040004000400090D00330
:0400000500000201F4
:00000001FF
